:100000000C942A000C9447000C9447000C94470071
:100010000C9447000C9447000C9447000C94470044
:100020000C9447000C9447000C9447000C94470034
:100030000C9447000C9447000C9447000C94470024
:100040000C9447000C9447000C9447000C94470014
:100050000C94470011241FBECFE5D8E0DEBFCDBF12
:1000600010E0A0E6B0E0E0E6F9E002C005900D92F5
:10007000AE36B107D9F720E0AEE6B0E001C01D9280
:10008000A837B207E1F70E949B000C94AE040C94D1
:10009000000041E750E061E083E40E94B7008091F6
:1000A0007100813009F044C080916F00811142C01D
:1000B00080917000843090F090E0049721E030E06F
:1000C000A90102C0440F551F8A95E2F7CA01809525
:1000D00090916E00892380936E000EC021E030E085
:1000E000A90102C0440F551F8A95E2F7CA019091F9
:1000F0006E00892B80936E0060916E0081E40E94F7
:10010000B701811108C080E690E09F938F930E9411
:10011000D0010F900F90809170008F5F80937000DE
:10012000883010F01092700081E080936F00089585
:1001300010926F00089560E081E40E94BB0061E0CE
:1001400081E40E94BB0062E081E40E94BB0063E0A6
:1001500081E40E94BB0061E083E40E94B2000E943F
:100160004900FDCF40E00E94C00081E008950E9458
:100170004D0181E0089541E00E94C00081E00895B2
:10018000823449F118F4813441F07DC0833409F49C
:1001900040C0843409F45AC076C041110DC02AB35E
:1001A00081E090E002C0880F991F6A95E2F7809580
:1001B00082238ABB81E00895413009F066C02AB3EA
:1001C00081E090E002C0880F991F6A95E2F7822BC8
:1001D0008ABB81E0089541110DC027B381E090E012
:1001E00002C0880F991F6A95E2F78095822387BB2A
:1001F00081E00895413009F04AC027B381E090E0E2
:1002000002C0880F991F6A95E2F7822B87BB81E0B5
:10021000089541110DC024B381E090E002C0880F21
:10022000991F6A95E2F78095822384BB81E0089547
:10023000413079F524B381E090E002C0880F991F26
:100240006A95E2F7822B84BB81E0089541110DC0CD
:1002500021B381E090E002C0880F991F6A95E2F710
:100260008095822381BB81E008954130A1F421B3C0
:1002700081E090E002C0880F991F6A95E2F7822B17
:1002800081BB81E0089580E0089580E0089580E0DA
:10029000089580E0089580E00895823409F118F40B
:1002A000813439F062C0833491F1843409F446C05A
:1002B0005CC079B381E090E09C01062E02C0220F61
:1002C000331F0A94E2F7872F90E08223932302C022
:1002D000959587956A95E2F7FA01808381E0089504
:1002E00076B381E090E09C01062E02C0220F331FFE
:1002F0000A94E2F7872F90E08223932302C095951A
:1003000087956A95E2F7FA01808381E0089573B3D7
:1003100081E090E09C01062E02C0220F331F0A9458
:10032000E2F7872F90E08223932302C0959587956B
:100330006A95E2F7FA01808381E0089570B381E065
:1003400090E09C01062E02C0220F331F0A94E2F7B0
:10035000872F90E08223932302C0959587956A9515
:10036000E2F7FA01808381E0089580E00895823405
:1003700061F018F4813431F011C0833449F08434D1
:1003800051F00CC06BBB81E0089568BB81E008951B
:1003900065BB81E0089562BB81E0089580E0089527
:1003A000A0E0B0E0E6EDF1E00C948704AE014B5F15
:1003B0005F4FFA0161917191AF018091740090914A
:1003C00075000E94E601E2E00C94A304ABE0B0E00B
:1003D000ECEEF1E00C9477046C017B018A01FC01E6
:1003E00017821682838181FFCCC1CE0101963C0128
:1003F000F6019381F70193FD859193FF81917F0130
:10040000882309F4BAC1853239F493FD859193FFAD
:1004100081917F01853229F4B60190E00E94DD03CD
:10042000E7CF912C212C312CFFE1F315D8F08B3242
:1004300079F038F4803279F08332A1F4232D2061F1
:100440001DC08D3261F0803369F4232D216016C008
:10045000832D8260382EE32DE4603E2E2AC0F32DDA
:10046000F8601DC037FC2DC020ED280F2A3040F069
:100470008E32B9F436FC81C1232D2064322E19C08E
:1004800036FE06C08AE0989E200D1124922E11C0DF
:10049000EAE02E9E200D1124222EF32DF0623F2E35
:1004A00008C08C3621F4832D8068382E02C088362F
:1004B00041F4F70193FD859193FF81917F018111B3
:1004C000B3CF982F9F7D9554933028F40C5F1F4F26
:1004D0009FE399830DC0833631F0833771F0833504
:1004E00009F059C021C0F801808189830E5F1F4F38
:1004F00088248394912C530113C02801F2E04F0EFD
:10050000511CF801A080B18036FE03C0692D70E057
:1005100002C06FEF7FEFC5010E94D2034C01820140
:10052000F32DFF773F2E16C0280122E0420E511C0A
:10053000F801A080B18036FE03C0692D70E002C0D2
:100540006FEF7FEFC5010E94C7034C01F32DF068E8
:100550003F2E820133FC1BC0822D90E08816990645
:10056000B0F4B60180E290E00E94DD032A94F4CF5B
:10057000F50137FC859137FE81915F01B60190E06E
:100580000E94DD0321102A9421E0821A910881142F
:10059000910471F7E8C0843611F0893641F5F8010D
:1005A00037FE07C060817181828193810C5F1F4F8C
:1005B00008C060817181072E000C880B990B0E5FBB
:1005C0001F4FF32DFF763F2E97FF09C09095809522
:1005D000709561957F4F8F4F9F4FF0683F2E2AE0B7
:1005E00030E0A3010E941904882E861845C0853783
:1005F00031F4232D2F7EB22E2AE030E025C0932D3A
:10060000997FB92E8F36C1F018F4883579F0B5C0CE
:10061000803719F0883721F0B0C0E92FE061BE2E95
:10062000B4FE0DC0FB2DF460BF2E09C034FE0AC01D
:10063000292F2660B22E06C028E030E005C020E158
:1006400030E002C020E132E0F801B7FE07C060816F
:100650007181828193810C5F1F4F06C0608171811F
:1006600080E090E00E5F1F4FA3010E941904882EC6
:100670008618FB2DFF773F2E36FE0DC0232D2E7FD3
:10068000A22E891458F434FE0BC032FC09C0832D0D
:100690008E7EA82E05C0B82CA32C03C0B82C01C098
:1006A000B92CA4FE0FC0FE01E80DF11D808180333E
:1006B00021F49A2D997EA92E09C0A2FE06C0B394FA
:1006C000B39404C08A2D867809F0B394A3FC11C0BA
:1006D000A0FE06C0B21488F4280C922C9B180EC001
:1006E000B21460F4B60180E290E00E94DD03B3949E
:1006F000F7CFB21418F42B1802C0982C212CA4FEAA
:1007000010C0B60180E390E00E94DD03A2FE17C096
:10071000A1FC03C088E790E002C088E590E0B60144
:100720000CC08A2D867859F0A1FE02C08BE201C070
:1007300080E2A7FC8DE2B60190E00E94DD038914FF
:1007400038F4B60180E390E00E94DD039A94F7CF7D
:100750008A94F301E80DF11D8081B60190E00E94BA
:10076000DD038110F5CF222009F442CEB60180E2EC
:1007700090E00E94DD032A94F6CFF60186819781EE
:1007800002C08FEF9FEF2B96E2E10C949304FC01E3
:100790000590615070400110D8F7809590958E0FAC
:1007A0009F1F0895FC016150704001900110D8F71F
:1007B000809590958E0F9F1F08950F931F93CF9351
:1007C000DF93FB01238121FD03C08FEF9FEF2CC03E
:1007D00022FF16C046815781248135814217530775
:1007E00044F4A081B1819D012F5F3F4F318320836D
:1007F0008C93268137812F5F3F4F3783268314C028
:100800008B01EC01FB010084F185E02D0995892B1A
:10081000E1F6D80116968D919C911797019617963F
:100820009C938E931697CE01DF91CF911F910F91DC
:100830000895FA01AA27283051F1203181F1E89476
:100840006F936E7F6E5F7F4F8F4F9F4FAF4FB1E0C3
:100850003ED0B4E03CD0670F781F891F9A1FA11DBE
:10086000680F791F8A1F911DA11D6A0F711D811DBF
:10087000911DA11D20D009F468943F912AE0269F84
:1008800011243019305D3193DEF6CF010895462FE3
:100890004770405D4193B3E00FD0C9F7F6CF462FC4
:1008A0004F70405D4A3318F0495D31FD405241932D
:1008B00002D0A9F7EACFB4E0A695979587957795EA
:1008C0006795BA95C9F700976105710508959B0171
:1008D000AC010A2E06945795479537952795BA95FA
:1008E000C9F7620F731F841F951FA01D08952F92D3
:1008F0003F924F925F926F927F928F929F92AF92B0
:10090000BF92CF92DF92EF92FF920F931F93CF93FC
:10091000DF93CDB7DEB7CA1BDB0B0FB6F894DEBF93
:100920000FBECDBF09942A88398848885F846E84B9
:100930007D848C849B84AA84B984C884DF80EE8003
:10094000FD800C811B81AA81B981CE0FD11D0FB60C
:10095000F894DEBF0FBECDBFED010895F894FFCF30
:0E09600044494F4552524F52535441544500A2
:00000001FF
