S01B00006C65645F76657273696F6E315F737072696E742E737265633F
S11300000C942A000C9459000C943C000C943C0071
S11300100C943C000C943C000C943C000C943C006C
S11300200C943C000C943C000C943C000C943C005C
S11300300C943C000C943C000C943C000C943C004C
S11300400C943C000C943C000C943C000C943C003C
S11300500C943C0011241FBECFE5D8E0DEBFCDBF19
S113006020E0A0E6B0E001C01D92A136B207E1F79E
S11300700E9481000C94AD010C94000060E081E4C6
S11300800E94750061E081E40E94750062E081E4F1
S11300900E94750063E081E40E94750062E084E4DC
S11300A00E946F000E94A50160E081E40E947B0031
S11300B0FBCF1F920F920FB60F9211248F93809152
S11300C06000873020F48F5F8093600002C010923C
S11300D060008F910F900FBE0F901F90189540E015
S11300E00E948600811181E0089541E00E9486000B
S11300F0811181E0089541E00E941801811181E09D
S113010008950E943E0080E090E00895683008F071
S113011083C0823449F118F4813441F07FC08334C0
S113012009F440C0843409F45AC078C041110DC0A8
S11301302AB381E090E002C0880F991F6A95E2F724
S1130140809582238ABB81E00895413009F068C01C
S11301502AB381E090E002C0880F991F6A95E2F704
S1130160822B8ABB81E0089541110DC027B381E041
S113017090E002C0880F991F6A95E2F78095822368
S113018087BB81E00895413009F04CC027B381E07A
S113019090E002C0880F991F6A95E2F7822B87BB13
S11301A081E0089541110DC024B381E090E002C0C4
S11301B0880F991F6A95E2F78095822384BB81E0BA
S11301C00895413089F524B381E090E002C0880F9E
S11301D0991F6A95E2F7822B84BB81E0089541114F
S11301E00DC021B381E090E002C0880F991F6A9589
S11301F0E2F78095822381BB81E008954130B1F418
S113020021B381E090E002C0880F991F6A95E2F75C
S1130210822B81BB81E0089580E0089580E00895F9
S113022080E0089580E0089580E0089580E00895D6
S1130230823449F118F4813441F07DC0833409F4E7
S113024040C0843409F45AC076C041110DC02BB3A8
S113025081E090E002C0880F991F6A95E2F78095CB
S113026082238BBB81E00895413009F066C02BB333
S113027081E090E002C0880F991F6A95E2F7822B13
S11302808BBB81E0089541110DC028B381E090E05B
S113029002C0880F991F6A95E2F78095822388BB74
S11302A081E00895413009F04AC028B381E090E02C
S11302B002C0880F991F6A95E2F7822B88BB81E000
S11302C0089541110DC025B381E090E002C0880F6C
S11302D0991F6A95E2F78095822385BB81E0089592
S11302E0413079F525B381E090E002C0880F991F71
S11302F06A95E2F7822B85BB81E0089541110DC018
S113030022B381E090E002C0880F991F6A95E2F75A
S11303108095822382BB81E008954130A1F422B309
S113032081E090E002C0880F991F6A95E2F7822B62
S113033082BB81E0089580E0089580E0089580E024
S1130340089580E0089580E00895789485B78360E7
S111035085BF8BB780648BBF0895F894FFCFF0
S9030000FC
