S01B00006C65645F76657273696F6E315F737072696E742E737265633F
S11300000C942A000C9435010C946C010C943C0063
S11300100C943C000C943C000C943C000C943C006C
S11300200C943C000C943C000C943C000C943C005C
S11300300C943C000C943C000C943C000C943C004C
S11300400C943C000C943C000C943C000C943C003C
S11300500C943C0011241FBECFE5D8E0DEBFCDBF19
S113006020E0A0E6B0E001C01D92A336B207E1F79C
S11300700E941D020C9453050C94000060E081E47E
S11300800E94A10161E081E40E94A10162E081E497
S11300900E94A10163E081E40E94A10162E084E482
S11300A00E949B0163E084E40E949B0160E083E47E
S11300B00E94050261E083E40E94050262E083E499
S11300C00E94050263E083E40E94050264E083E485
S11300D00E94050265E083E40E94050266E083E471
S11300E00E94050267E083E40E94050267E084E45D
S11300F00E9419020E9441030E944F030E940902B8
S1130100809162008130E1F763E081E40E94AD01F7
S113011080916100813051F40E94520360E081E4D7
S11301200E94AD0188EE93E00E94580382E390E0C0
S11301300E940C028091600081110DC00E94520344
S113014060E081E40E94A7010E94B30188EB9BE078
S11301500E94580302C00E94DC010E94520362E024
S113016081E40E94A7010E94DC0160E081E40E9416
S1130170AD0184EF91E00E94580362E081E40E94A3
S1130180AD018091600081110FC063E081E40E94A1
S1130190A7010E94520384E690E00E94580363E0A2
S11301A081E40E94AD0102C00E94DC010E9452035E
S11301B062E081E40E94A70184EF91E00E94580369
S11301C08EE190E00E940C0262E081E40E94AD01A5
S11301D08091600081110DC00E94520361E081E4AE
S11301E00E94A7010E94B30180ED97E00E9458038A
S11301F002C00E94DC010E94520362E081E40E947A
S1130200A7010E94DC0161E081E40E94AD0184EF5A
S113021091E00E94580362E081E40E94AD01809164
S1130220600081110FC063E081E40E94A7010E9475
S1130230520384E690E00E94580363E081E40E9444
S1130240AD0102C00E94DC010E94520362E081E41D
S11302500E94A70184EF91E00E94580362E081E4C8
S11302600E94AD01109261004BCF1F920F920FB606
S11302700F9211242F933F934F935F936F937F9328
S11302808F939F93AF93BF93EF93FF9381E08093FA
S113029060000E94DC0162E081E40E94A70160E04A
S11302A081E40E94AD0161E081E40E94AD0163E05C
S11302B081E40E94AD01FF91EF91BF91AF919F91B5
S11302C08F917F916F915F914F913F912F910F90FB
S11302D00FBE0F901F9018951F920F920FB60F929A
S11302E011242F933F934F935F936F937F938F9337
S11302F09F93AF93BF93CF93EF93FF93C1E0C093CA
S113030062001092600062E081E40E94AD01C0933B
S11303106100FF91EF91CF91BF91AF919F918F9128
S11303207F916F915F914F913F912F910F900FBEED
S11303300F901F90189540E00E942202811181E0E5
S1130340089541E00E942202811181E0089541E074
S11303500E94B402811181E0089540E00E94B40239
S1130360811181E0089541E060E083E40E94B402D9
S113037040E061E083E40E94B40241E062E083E48F
S11303800E94B40240E063E083E40E94B40241E0CE
S113039064E083E40E94B40240E065E083E40E94E8
S11303A0B40241E066E083E40E94B40240E067E006
S11303B083E40E94B402089540E060E083E40E9474
S11303C0B40240E061E083E40E94B40240E062E0F1
S11303D083E40E94B40240E063E083E40E94B40238
S11303E040E064E083E40E94B40240E065E083E41A
S11303F00E94B40240E066E083E40E94B40240E05C
S113040067E083E40E94B402089541E00E9422025E
S1130410089581E685BD08952FEFAC01249FC001A6
S1130420259F900D112464E670E00E942B0563BDA6
S1130430089541E00E94220208950E943E0080E057
S113044090E00895683008F083C0823449F118F4CC
S1130450813441F07FC0833409F440C0843409F40A
S11304605AC078C041110DC02AB381E090E002C0A7
S1130470880F991F6A95E2F7809582238ABB81E0F1
S11304800895413009F068C02AB381E090E002C0C9
S1130490880F991F6A95E2F7822B8ABB81E0089541
S11304A041110DC027B381E090E002C0880F991F6D
S11304B06A95E2F78095822387BB81E008954130F5
S11304C009F04CC027B381E090E002C0880F991F67
S11304D06A95E2F7822B87BB81E0089541110DC034
S11304E024B381E090E002C0880F991F6A95E2F777
S11304F08095822384BB81E00895413089F524B33B
S113050081E090E002C0880F991F6A95E2F7822B80
S113051084BB81E0089541110DC021B381E090E0D6
S113052002C0880F991F6A95E2F78095822381BBE8
S113053081E008954130B1F421B381E090E002C03C
S1130540880F991F6A95E2F7822B81BB81E0089599
S113055080E0089580E0089580E0089580E00895A3
S113056080E0089580E00895823449F118F48134DC
S113057041F07DC0833409F440C0843409F45AC086
S113058076C041110DC02BB381E090E002C0880F0A
S1130590991F6A95E2F7809582238BBB81E00895C9
S11305A0413009F066C02BB381E090E002C0880FAF
S11305B0991F6A95E2F7822B8BBB81E00895411164
S11305C00DC028B381E090E002C0880F991F6A959E
S11305D0E2F78095822388BB81E00895413009F0D9
S11305E04AC028B381E090E002C0880F991F6A9541
S11305F0E2F7822B88BB81E0089541110DC025B339
S113060081E090E002C0880F991F6A95E2F7809517
S1130610822385BB81E00895413079F525B381E0DB
S113062090E002C0880F991F6A95E2F7822B85BB80
S113063081E0089541110DC022B381E090E002C031
S1130640880F991F6A95E2F78095822382BB81E027
S113065008954130A1F422B381E090E002C0880FF4
S1130660991F6A95E2F7822B82BB81E0089580E0AE
S1130670089580E0089580E0089580E0089580E082
S11306800895789485B7836085BF8BB780648BBFEA
S113069085B78C6085BF8BB780688BBF089512BE09
S11306A013BE089583B7816083BF089513BE089570
S11306B0BC01990F880B990B0E9432042FE632E19A
S11306C043E85AE30E94BE042DEB37E346E859E3BE
S11306D00E9488030E94FA039B0140E050E0BA01A3
S11306E00AC008B600FEFDCF88B7816088BF4F5F9F
S11306F05F4F6F4F7F4FC901032E000CAA0BBB0B3A
S1130700481759076A077B0760F30E945603089548
S11307100E949C030C9484040E947D0458F00E945F
S1130720760440F029F45F3F29F00C946D045111D4
S11307300C94B8040C9473040E94950468F39923F0
S1130740B1F3552391F3951B550BBB27AA276217C9
S11307507307840738F09F5F5F4F220F331F441FD6
S1130760AA1FA9F335D00E2E3AF0E0E832D091500A
S11307705040E695001CCAF72BD0FE2F29D0660FF7
S1130780771F881FBB1F261737074807AB07B0E83A
S113079009F0BB0B802DBF01FF2793585F4F3AF040
S11307A09E3F510578F00C946D040C94B8045F3F9F
S11307B0E4F3983ED4F3869577956795B795F795C6
S11307C09F5FC9F7880F911D9695879597F90895AE
S11307D0E1E0660F771F881FBB1F6217730784074A
S11307E0BA0720F0621B730B840BBA0BEE1F88F759
S11307F0E09508950E9401046894B1110C94B80422
S113080008950E949D0488F09F5798F0B92F992766
S1130810B751B0F0E1F0660F771F881F991F1AF0E7
S1130820BA95C9F714C0B13091F00E94B704B1E091
S113083008950C94B704672F782F8827B85F39F090
S1130840B93FCCF3869577956795B395D9F73EF480
S113085090958095709561957F4F8F4F9F4F089528
S1130860E89409C097FB3EF4909580957095619546
S11308707F4F8F4F9F4F9923A9F0F92F96E9BB27FC
S11308809395F695879577956795B795F111F8CF78
S1130890FAF4BB0F11F460FF1BC06F5F7F4F8F4FE3
S11308A09F4F16C0882311F096E911C0772321F0D9
S11308B09EE8872F762F05C0662371F096E8862F71
S11308C070E060E02AF09A95660F771F881FDAF7C8
S11308D0880F9695879597F9089597F99F6780E80B
S11308E070E060E008959FEF80EC089500240A947E
S11308F01616170618060906089500240A941216F7
S11309001306140605060895092E0394000C11F429
S1130910882352F0BB0F40F4BF2B11F460FF04C0D6
S11309206F5F7F4F8F4F9F4F089557FD9058440F2F
S1130930551F59F05F3F71F04795880F97FB991F3A
S113094061F09F3F79F087950895121613061406F7
S1130950551FF2CF4695F1DF08C016161706180684
S1130960991FF1CF86957105610508940895E8945F
S1130970BB2766277727CB0197F908950E94D104F6
S11309800C9484040E94760438F00E947D0420F0C4
S1130990952311F00C946D040C94730411240C949D
S11309A0B8040E94950470F3959FC1F3950F50E02D
S11309B0551F629FF001729FBB27F00DB11D639F0D
S11309C0AA27F00DB11DAA1F649F6627B00DA11DB3
S11309D0661F829F2227B00DA11D621F739FB00D59
S11309E0A11D621F839FA00D611D221F749F3327C9
S11309F0A00D611D231F849F600D211D822F762F62
S1130A006A2F11249F5750409AF0F1F088234AF03E
S1130A10EE0FFF1FBB1F661F771F881F91505040AA
S1130A20A9F79E3F510580F00C946D040C94B80412
S1130A305F3FE4F3983ED4F3869577956795B79531
S1130A40F795E7959F5FC1F7FE2B880F911D96954B
S1130A50879597F9089597FB072E16F4009407D00D
S1130A6077FD09D00E943F0507FC05D03EF4909520
S1130A7081959F4F0895709561957F4F0895AA1BA6
S1130A80BB1B51E107C0AA1FBB1FA617B70710F075
S1130A90A61BB70B881F991F5A95A9F780959095A7
S10D0AA0BC01CD010895F894FFCFC6
S9030000FC
