:100000000C9457000C9443060C9459060C94690008
:100010000C9469000C9469000C9469000C946900BC
:100020000C9469000C9469000C9469000C946900AC
:100030000C9469000C9469000C9469000C9469009C
:100040000C9469000C9469000C9469000C9469008C
:100050000C946900A600B700CC00E9000E013B013A
:1000600064018901AA01C801D901EE010B02300225
:100070005D028602AB02CC02EA02FB0210032D03F2
:1000800052037F03A803CD03EE030C041D043204C6
:100090004F047404A104CA04EF0410052E053F05A3
:1000A000540571059605C305EC05110632061124A9
:1000B0001FBECFE5D8E0DEBFCDBF20E0A0E6B0E0B8
:1000C00001C01D92A236B207E1F70E9486060C9489
:1000D000CC090C94000060E081E40E94750661E0A8
:1000E00081E40E94750662E081E40E94750663E087
:1000F00081E40E94750662E084E40E946F0663E07A
:1001000084E40E946F060E94E7070E94F507809131
:100110006000823009F451C230F4882359F08130F4
:1001200009F429C1F4CF833009F469C3843009F498
:1001300088C4EDCFE09161008E2F90E08930910569
:1001400030F7FC01E65DFF4F0C94C60960E081E4E6
:100150000E947B0661E081E40E947B0662E081E40C
:100160000E947B0663E081E40E947B06D0CF0E9460
:10017000F80760E081E40E94810684E690E00E9436
:10018000FE070E94F80760E081E40E94810684E88F
:1001900093E00E94FE07BBCF0E94F80761E081E474
:1001A0000E94810660E081E40E94810684E690E07E
:1001B0000E94FE070E94F80761E081E40E94810628
:1001C00060E081E40E94810684E893E00E94FE07DB
:1001D0009ECF0E94F80762E081E40E94810661E000
:1001E00081E40E94810660E081E40E94810684E649
:1001F00090E00E94FE070E94F80762E081E40E94FE
:10020000810661E081E40E94810660E081E40E9451
:10021000810684E893E00E94FE0779CF0E94F807E8
:1002200063E081E40E94810660E081E40E9481062F
:1002300061E081E40E94810662E081E40E9481061F
:1002400084E690E00E94FE070E94F80763E081E4E4
:100250000E94810660E081E40E94810661E081E401
:100260000E94810662E081E40E94810684E893E0B6
:100270000E94FE074CCF60E081E40E947B060E9452
:10028000F80763E081E40E94810661E081E40E9456
:10029000810662E081E40E94810684E690E00E948B
:1002A000FE070E94F80763E081E40E94810661E096
:1002B00081E40E94810662E081E40E94810684E874
:1002C00093E00E94FE0723CF60E081E40E947B065A
:1002D00061E081E40E947B060E94F80763E081E40C
:1002E0000E94810662E081E40E94810684E690E03B
:1002F0000E94FE070E94F80763E081E40E948106E5
:1003000062E081E40E94810684E893E00E94FE0797
:10031000FECE60E081E40E947B0661E081E40E9401
:100320007B0662E081E40E947B060E94F80763E09E
:1003300081E40E94810684E690E00E94FE070E940C
:10034000F80763E081E40E94810684E893E00E945C
:10035000FE07DDCE60E081E40E947B0661E081E47F
:100360000E947B0662E081E40E947B0663E081E4F8
:100370000E947B06CCCEE09161008E2F90E0893008
:10038000910508F0C4CEFC01ED5CFF4F0C94C6094A
:1003900060E081E40E947B0661E081E40E947B06CC
:1003A00062E081E40E947B0663E081E40E947B06B8
:1003B000AECE0E94F80760E081E40E94810688ECDE
:1003C00090E00E94FE070E94F80760E081E40E942E
:1003D000810680E293E00E94FE0799CE0E94F80712
:1003E00061E081E40E94810660E081E40E94810670
:1003F00088EC90E00E94FE070E94F80761E081E42B
:100400000E94810660E081E40E94810680E293E020
:100410000E94FE077CCE0E94F80762E081E40E9401
:10042000810661E081E40E94810660E081E40E942F
:10043000810688EC90E00E94FE070E94F80762E0C7
:1004400081E40E94810661E081E40E94810660E00F
:1004500081E40E94810680E293E00E94FE0757CE6D
:100460000E94F80763E081E40E94810660E081E475
:100470000E94810661E081E40E94810662E081E4DD
:100480000E94810688EC90E00E94FE070E94F80717
:1004900063E081E40E94810660E081E40E948106BD
:1004A00061E081E40E94810662E081E40E948106AD
:1004B00080E293E00E94FE072ACE60E081E40E9481
:1004C0007B060E94F80763E081E40E94810661E0F8
:1004D00081E40E94810662E081E40E94810688EC4A
:1004E00090E00E94FE070E94F80763E081E40E940A
:1004F000810661E081E40E94810662E081E40E945D
:10050000810680E293E00E94FE0701CE60E081E474
:100510000E947B0661E081E40E947B060E94F8074E
:1005200063E081E40E94810662E081E40E9481062A
:1005300088EC90E00E94FE070E94F80763E081E4E7
:100540000E94810662E081E40E94810680E293E0DD
:100550000E94FE07DCCD60E081E40E947B0661E042
:1005600081E40E947B0662E081E40E947B060E9497
:10057000F80763E081E40E94810688EC90E00E9425
:10058000FE070E94F80763E081E40E94810680E292
:1005900093E00E94FE07BBCD60E081E40E947B06F1
:1005A00061E081E40E947B0662E081E40E947B06B8
:1005B00063E081E40E947B06AACDE09161008E2F6A
:1005C00090E08930910508F0A2CDFC01E45CFF4F7A
:1005D0000C94C60960E081E40E947B0661E081E43E
:1005E0000E947B0662E081E40E947B0663E081E476
:1005F0000E947B068CCD0E94F80760E081E40E9497
:1006000081068CE291E00E94FE070E94F80760E0FC
:1006100081E40E9481068CEB92E00E94FE0777CD78
:100620000E94F80761E081E40E94810660E081E4B5
:100630000E9481068CE291E00E94FE070E94F8076A
:1006400061E081E40E94810660E081E40E9481060D
:100650008CEB92E00E94FE075ACD0E94F80762E000
:1006600081E40E94810661E081E40E94810660E0ED
:1006700081E40E9481068CE291E00E94FE070E94C4
:10068000F80762E081E40E94810661E081E40E9453
:10069000810660E081E40E9481068CEB92E00E947A
:1006A000FE0735CD0E94F80763E081E40E948106D1
:1006B00060E081E40E94810661E081E40E9481069D
:1006C00062E081E40E9481068CE291E00E94FE07D4
:1006D0000E94F80763E081E40E94810660E081E403
:1006E0000E94810661E081E40E94810662E081E46B
:1006F0000E9481068CEB92E00E94FE0708CD60E02C
:1007000081E40E947B060E94F80763E081E40E9476
:10071000810661E081E40E94810662E081E40E943A
:1007200081068CE291E00E94FE070E94F80763E0D8
:1007300081E40E94810661E081E40E94810662E01A
:1007400081E40E9481068CEB92E00E94FE07DFCCE0
:1007500060E081E40E947B0661E081E40E947B0608
:100760000E94F80763E081E40E94810662E081E470
:100770000E9481068CE291E00E94FE070E94F80729
:1007800063E081E40E94810662E081E40E948106C8
:100790008CEB92E00E94FE07BACC60E081E40E94FC
:1007A0007B0661E081E40E947B0662E081E40E94B6
:1007B0007B060E94F80763E081E40E9481068CE2D8
:1007C00091E00E94FE070E94F80763E081E40E9426
:1007D00081068CEB92E00E94FE0799CC60E081E4F8
:1007E0000E947B0661E081E40E947B0662E081E476
:1007F0000E947B0663E081E40E947B0688CCE09146
:1008000061008E2F90E08930910508F080CCFC01CA
:10081000EB5BFF4F0C94C60960E081E40E947B060D
:1008200061E081E40E947B0662E081E40E947B0635
:1008300063E081E40E947B066ACC0E94F80760E0D6
:1008400081E40E94810684EF91E00E94FE070E94ED
:10085000F80760E081E40E94810684EF91E00E9445
:10086000FE0755CC0E94F80761E081E40E948106F2
:1008700060E081E40E94810684EF91E00E94FE071F
:100880000E94F80761E081E40E94810660E081E453
:100890000E94810684EF91E00E94FE0738CC0E94FE
:1008A000F80762E081E40E94810661E081E40E9431
:1008B000810660E081E40E94810684EF91E00E945D
:1008C000FE070E94F80762E081E40E94810661E071
:1008D00081E40E94810660E081E40E94810684EF49
:1008E00091E00E94FE0713CC0E94F80763E081E4C8
:1008F0000E94810660E081E40E94810661E081E45B
:100900000E94810662E081E40E94810684EF91E00A
:100910000E94FE070E94F80763E081E40E948106BE
:1009200060E081E40E94810661E081E40E9481062A
:1009300062E081E40E94810684EF91E00E94FE075C
:10094000E6CB60E081E40E947B060E94F80763E04A
:1009500081E40E94810661E081E40E94810662E0F8
:1009600081E40E94810684EF91E00E94FE070E94CC
:10097000F80763E081E40E94810661E081E40E945F
:10098000810662E081E40E94810684EF91E00E948A
:10099000FE07BDCB60E081E40E947B0661E081E45C
:1009A0000E947B060E94F80763E081E40E948106B2
:1009B00062E081E40E94810684EF91E00E94FE07DC
:1009C0000E94F80763E081E40E94810662E081E40E
:1009D0000E94810684EF91E00E94FE0798CB60E0C0
:1009E00081E40E947B0661E081E40E947B0662E074
:1009F00081E40E947B060E94F80763E081E40E9484
:100A0000810684EF91E00E94FE070E94F80763E0F0
:100A100081E40E94810684EF91E00E94FE0777CB7B
:100A200060E081E40E947B0661E081E40E947B0635
:100A300062E081E40E947B0663E081E40E947B0621
:100A400066CBE09161008E2F90E08930910508F02F
:100A50005ECBFC01E25BFF4F0C94C60960E081E4D1
:100A60000E947B0661E081E40E947B0662E081E4F3
:100A70000E947B0663E081E40E947B0648CB0E94D3
:100A8000F80760E081E40E94810680E293E00E9422
:100A9000FE070E94F80760E081E40E94810688EC6E
:100AA00090E00E94FE0733CB0E94F80761E081E4EA
:100AB0000E94810660E081E40E94810680E293E06A
:100AC0000E94FE070E94F80761E081E40E9481060F
:100AD00060E081E40E94810688EC90E00E94FE07BD
:100AE00016CB0E94F80762E081E40E94810661E073
:100AF00081E40E94810660E081E40E94810680E238
:100B000093E00E94FE070E94F80762E081E40E94E1
:100B1000810661E081E40E94810660E081E40E9438
:100B2000810688EC90E00E94FE07F1CA0E94F80757
:100B300063E081E40E94810660E081E40E94810616
:100B400061E081E40E94810662E081E40E94810606
:100B500080E293E00E94FE070E94F80763E081E4D0
:100B60000E94810660E081E40E94810661E081E4E8
:100B70000E94810662E081E40E94810688EC90E098
:100B80000E94FE07C4CA60E081E40E947B060E94C6
:100B9000F80763E081E40E94810661E081E40E943D
:100BA000810662E081E40E94810680E293E00E9477
:100BB000FE070E94F80763E081E40E94810661E07D
:100BC00081E40E94810662E081E40E94810688EC53
:100BD00090E00E94FE079BCA60E081E40E947B06D1
:100BE00061E081E40E947B060E94F80763E081E4F3
:100BF0000E94810662E081E40E94810680E293E027
:100C00000E94FE070E94F80763E081E40E948106CB
:100C100062E081E40E94810688EC90E00E94FE0779
:100C200076CA60E081E40E947B0661E081E40E9474
:100C30007B0662E081E40E947B060E94F80763E085
:100C400081E40E94810680E293E00E94FE070E94F8
:100C5000F80763E081E40E94810688EC90E00E943E
:100C6000FE0755CA60E081E40E947B0661E081E4F2
:100C70000E947B0662E081E40E947B0663E081E4DF
:100C80000E947B0644CA1F920F920FB60F92112446
:100C90008F9380916100873020F48F5F8093610093
:100CA00002C0109261008F910F900FBE0F901F90A5
:100CB00018951F920F920FB60F9211248F93809167
:100CC0006000843020F48F5F8093600002C0109237
:100CD00060008F910F900FBE0F901F90189540E00D
:100CE0000E948B06811181E0089541E00E948B06ED
:100CF000811181E0089540E00E941D07811181E08B
:100D000008950E94AA07811181E008950E946B0056
:100D100080E090E00895683008F083C0823449F1A3
:100D200018F4813441F07FC0833409F440C0843426
:100D300009F45AC078C041110DC02AB381E090E097
:100D400002C0880F991F6A95E2F7809582238ABBBB
:100D500081E00895413009F068C02AB381E090E055
:100D600002C0880F991F6A95E2F7822B8ABB81E047
:100D7000089541110DC027B381E090E002C0880FB3
:100D8000991F6A95E2F78095822387BB81E00895D9
:100D9000413009F04CC027B381E090E002C0880FD9
:100DA000991F6A95E2F7822B87BB81E00895411174
:100DB0000DC024B381E090E002C0880F991F6A95AE
:100DC000E2F78095822384BB81E00895413089F564
:100DD00024B381E090E002C0880F991F6A95E2F782
:100DE000822B84BB81E0089541110DC021B381E0C5
:100DF00090E002C0880F991F6A95E2F780958223E0
:100E000081BB81E008954130B1F421B381E090E0ED
:100E100002C0880F991F6A95E2F7822B81BB81E09F
:100E2000089580E0089580E0089580E0089580E0CE
:100E3000089580E0089580E00895823449F118F41F
:100E4000813441F07DC0833409F440C0843409F416
:100E50005AC076C041110DC02BB381E090E002C0B2
:100E6000880F991F6A95E2F7809582238BBB81E0FA
:100E70000895413009F066C02BB381E090E002C0D4
:100E8000880F991F6A95E2F7822B8BBB81E008954A
:100E900041110DC028B381E090E002C0880F991F76
:100EA0006A95E2F78095822388BB81E008954130FE
:100EB00009F04AC028B381E090E002C0880F991F72
:100EC0006A95E2F7822B88BB81E0089541110DC03D
:100ED00025B381E090E002C0880F991F6A95E2F780
:100EE0008095822385BB81E00895413079F525B353
:100EF00081E090E002C0880F991F6A95E2F7822B8B
:100F000085BB81E0089541110DC022B381E090E0DE
:100F100002C0880F991F6A95E2F78095822382BBF1
:100F200081E008954130A1F422B381E090E002C055
:100F3000880F991F6A95E2F7822B82BB81E00895A2
:100F400080E0089580E0089580E0089580E00895AD
:100F500080E008958234A9F018F4813431F035C06E
:100F60008334D9F0843429F130C02BB381E090E090
:100F700002C0880F991F6A95E2F782278BBB81E038
:100F8000089528B381E090E002C0880F991F6A9508
:100F9000E2F7822788BB81E0089525B381E090E0E5
:100FA00002C0880F991F6A95E2F7822785BB81E00E
:100FB000089522B381E090E002C0880F991F6A95DE
:100FC000E2F7822782BB81E0089580E0089578945B
:100FD00085B7836085BF8BB780648BBF85B78C6016
:100FE00085BF8BB780688BBF089513BE12BE08956E
:100FF00083B7816083BF089513BE0895BC01990F24
:10100000880B990B0E94CD082FE632E143E85AE3A2
:101010000E9459092DEB37E346E859E30E94230863
:101020000E94950820E030E008C008B600FEFDCF21
:1010300088B7816088BF2F5F3F4F26173707A8F317
:101040000E94FC0708950E9437080C941F090E9413
:10105000180958F00E94110940F029F45F3F29F067
:101060000C94080951110C9453090C940E090E9418
:10107000300968F39923B1F3552391F3951B550B70
:10108000BB27AA2762177307840738F09F5F5F4F5B
:10109000220F331F441FAA1FA9F335D00E2E3AF09A
:1010A000E0E832D091505040E695001CCAF72BD0B2
:1010B000FE2F29D0660F771F881FBB1F2617370703
:1010C0004807AB07B0E809F0BB0B802DBF01FF2735
:1010D00093585F4F3AF09E3F510578F00C94080901
:1010E0000C9453095F3FE4F3983ED4F386957795CB
:1010F0006795B795F7959F5FC9F7880F911D9695EE
:10110000879597F90895E1E0660F771F881FBB1F49
:10111000621773078407BA0720F0621B730B840BF6
:10112000BA0BEE1F88F7E09508950E949C0868941A
:10113000B1110C94530908950E94380988F09F5703
:1011400098F0B92F9927B751B0F0E1F0660F771FEB
:10115000881F991F1AF0BA95C9F714C0B13091F0E1
:101160000E945209B1E008950C945209672F782F1C
:101170008827B85F39F0B93FCCF3869577956795A6
:10118000B395D9F73EF490958095709561957F4F12
:101190008F4F9F4F0895E89409C097FB3EF49095B8
:1011A0008095709561957F4F8F4F9F4F9923A9F040
:1011B000F92F96E9BB279395F695879577956795CF
:1011C000B795F111F8CFFAF4BB0F11F460FF1BC013
:1011D0006F5F7F4F8F4F9F4F16C0882311F096E9A6
:1011E00011C0772321F09EE8872F762F05C0662354
:1011F00071F096E8862F70E060E02AF09A95660F0D
:10120000771F881FDAF7880F9695879597F90895C5
:1012100097F99F6780E870E060E008959FEF80ECA9
:10122000089500240A94161617061806090608954C
:1012300000240A9412161306140605060895092EB2
:101240000394000C11F4882352F0BB0F40F4BF2B21
:1012500011F460FF04C06F5F7F4F8F4F9F4F089561
:1012600057FD9058440F551F59F05F3F71F0479557
:10127000880F97FB991F61F09F3F79F0879508953C
:10128000121613061406551FF2CF4695F1DF08C05B
:10129000161617061806991FF1CF86957105610578
:1012A00008940895E894BB2766277727CB0197F920
:1012B00008950E946C090C941F090E94110938F0CE
:1012C0000E94180920F0952311F00C9408090C9441
:1012D0000E0911240C9453090E94300970F3959F54
:1012E000C1F3950F50E0551F629FF001729FBB271D
:1012F000F00DB11D639FAA27F00DB11DAA1F649FB9
:101300006627B00DA11D661F829F2227B00DA11D6B
:10131000621F739FB00DA11D621F839FA00D611DF1
:10132000221F749F3327A00D611D231F849F600D12
:10133000211D822F762F6A2F11249F5750409AF03B
:10134000F1F088234AF0EE0FFF1FBB1F661F771FC7
:10135000881F91505040A9F79E3F510580F00C9492
:1013600008090C9453095F3FE4F3983ED4F3869543
:1013700077956795B795F795E7959F5FC1F7FE2B32
:10138000880F911D9695879597F90895EE0FFF1F89
:0C1390000590F491E02D0994F894FFCF33
:00000001FF
